:020000002100DD
:03000300A990328F
:10010000D2B075A0007580007590FF7E00D288D2B5
:10011000AFD2A8EE1200C8F5801201B720B0F430BB
:10012000B0FD0EEE1200C8F58012020820B0F430C7
:10013000B0FD0EEE1200C8F58012026B20B0F43054
:10014000B0FD0EEE1200C8F58012029820B0F43017
:10015000B0FD0EEE1200C8F5801202F120B0F430AE
:10016000B0FD0EEE1200C8F58012031E20B0F43070
:10017000B0FD0EEE1200C8F58012035A20B0F43024
:10018000B0FD0EEE1200C8F5801203AB20B0F430C3
:10019000B0FD0EEE1200C8F58012029820B0F430C7
:1001A000B0FD0EEE1200C8F58012041820B0F43035
:1001B000B0FD7E00120113D2A712030AC2A71203D8
:1001C0000AD2A612030AC2A612030AD2A512030A71
:1001D000C2A512030AD2A412030AC2A412030AD2AD
:1001E000A312030AC2A312030AD2A212030AC2A2D2
:1001F00012030AD2A112030AC2A112030AD2A01248
:10020000030AC2A012030A22D2A7D2A012030AC272
:10021000A7C2A012030AD2A6D2A112030AC2A6C282
:10022000A112030AD2A5D2A212030AC2A5C2A21227
:10023000030AD2A4D2A312030AC2A4C2A312030ABD
:10024000D2A5D2A212030AC2A5C2A212030AD2A642
:0E025000D2A112030AC2A6C2A112030AD2A7AB
:10025E00D2A012030AC2A7C2A012030A22D2A0D2AF
:10026E00A2D2A4D2A612030AC2A0C2A2C2A4C2A63D
:10027E0012030AD2A1D2A3D2A5D2A712030AC2A1F7
:10028E00C2A3C2A5C2A712030A22D2A0D2A1D2A68D
:10029E00D2A712030AC2A0C2A1C2A6C2A712030A03
:1002AE00D2A2D2A3D2A4D2A512030AC2A2C2A3C2C0
:1002BE00A4C2A512030AD2A2D2A3D2A4D2A512031B
:1002CE000AC2A2C2A3C2A4C2A512030AD2A0D2A17C
:1002DE00D2A6D2A712030AC2A0C2A1C2A6C2A71258
:1002EE00030A22D2A0D2A712030AC2A0C2A7D2A585
:1002FE00D2A212030AC2A5C2A2D2A3D2A412030A88
:10030E00C2A4C2A3D2A1D2A612030AC2A1C2A6221D
:10031E00D2A012030AD2A112030AC2A0D2A21203C1
:10032E000AC2A1D2A312030AC2A2D2A412030AC203
:10033E00A3D2A512030AC2A4D2A612030AC2A5D240
:10034E00A712030AC2A612030AC2A722D2A0120340
:10035E000AD2A112030AD2A212030AD2A312030ACC
:10036E00D2A412030AD2A512030AD2A612030AD2EB
:10037E00A712030AC2A012030AC2A112030AC2A242
:10038E0012030AC2A312030AC2A412030AC2A512BE
:10039E00030AC2A612030AC2A712030A22D2A0128D
:0203AE00030A40
:1003B000D2A112030AC2A0D2A312030AC2A1D2A5DB
:1003C00012030AC2A3D2A712030AC2A5D2A612031D
:1003D0000AC2A7D2A412030AC2A6D2A212030AC258
:1003E000A4D2A012030AC2A2C2A022D2A0D2A4D236
:1003F000A3D2A712030AC2A0C2A4C2A3C2A7120317
:100400000AD2A2D2A6D2A1D2A512030AC2A2C2A621
:10041000C2A1C2A512030A22D2A0D2A2D2A7D2A5FB
:1004200012030AD2A1D2A3D2A6D2A4C2A0C2A2C24F
:10043000A5C2A712030AC2A1C2A3C2A6C2A41203E4
:020440000A228E
:0500C8009003009322EB
:100300003F065B4F666D7D077F6FA9907BFADBFE32
:03031000D9FA22F5
:00000001FF
